:020000040800F2
:100000008806002081010008710700088F0300089E
:1000100000000000000000000000000000000000E0
:10002000000000000000000000000000770700084A
:1000300000000000000000007507000879070008B4
:1000400093010008000000009301000893010008DC
:100050009301000893010008930100089301000830
:1000600000000000930100089301000893010008BC
:1000700093010008930100089301000800000000AC
:100080009301000800000000000000009301000838
:10009000000000009301000893010008930100088C
:1000A00093010008930100089301000893010008E0
:1000B00093010008000000000000000000000000A4
:1000C00000F002F800F04CF812A030C808382418EC
:1000D0002D18AC4201D100F043F80FCCA246AB463C
:1000E0000CA730CF2D1B083F3F197C427F1E544484
:1000F0002D090426F441641EAC4201D300F030F80F
:100100000126334200D0FB1A3343984754465D46DC
:10011000DFE700007C0A00009C0A0000103A02D3CE
:1001200078C878C1FAD8520701D330C830C101D598
:1001300004680C6070470000704700000023002432
:1001400000250026103A01D378C1FBD8520700D30E
:1001500030C100D50B6070471FB51FBD10B510BD75
:1001600000F0E3F81146FFF7F7FF00F0DFFC00F0C6
:10017000FBF803B4FFF7F2FF03BC00F001F9000045
:100180000748804707480047FEE7FEE7FEE7FEE72F
:10019000FEE7FEE704480549054A064B70470000A4
:1001A000CD070008C1000008880000208806002054
:1001B0008802002088020020002203098B422CD3F1
:1001C000030A8B4211D300239C464EE003460B43A7
:1001D0003CD4002243088B4231D303098B421CD309
:1001E000030A8B4201D394463FE0C3098B4201D3FB
:1001F000CB01C01A524183098B4201D38B01C01A33
:10020000524143098B4201D34B01C01A52410309A9
:100210008B4201D30B01C01A5241C3088B4201D358
:10022000CB00C01A524183088B4201D38B00C01A05
:10023000524143088B4201D34B00C01A5241411A2C
:1002400000D201465241104670475DE0CA0F00D00F
:100250004942031000D3404253409C460022030908
:100260008B422DD3030A8B4212D38901FC2212BA8E
:10027000030A8B420CD3890192118B4208D3890166
:1002800092118B4204D389013AD0921100E089097E
:10029000C3098B4201D3CB01C01A524183098B425F
:1002A00001D38B01C01A524143098B4201D34B0148
:1002B000C01A524103098B4201D30B01C01A5241AB
:1002C000C3088B4201D3CB00C01A524183088B4232
:1002D00001D38B00C01A5241D9D243088B4201D3BB
:1002E0004B00C01A5241411A00D2014652411046F9
:1002F00063465B1001D34042002B00D54942704752
:1003000063465B1000D3404201B50549002802DC7A
:10031000491C084000E00846C046C04602BD00BF78
:10032000FFFFFF7F704770477047754600F024F865
:10033000AE46050069465346C008C000854618B061
:1003400020B5FFF727FF60BCB64600260027C0C5D2
:10035000C0C5C0C5C0C5C0C5C0C5C0C5C0C5403D7D
:10036000490849008D46704710B50446C046C0464E
:100370002046FFF7FEFE10BD004870472800002011
:1003800001491820ABBEFEE7260002007047FFE7D8
:10039000FEE7000082B00190019A05480168114310
:1003A00001600068019908400090009802B0704711
:1003B0003C10024082B00190019A05480168114347
:1003C00001600068019908400090009802B07047F1
:1003D0004010024080B584B003900291002001904B
:1003E000FFE7029800680199C84000284BD0FFE75A
:1003F00002980068019A01219140084000900098FD
:1004000000283CD0FFE702984068012805D0FFE7AC
:100410000298406802280DD1FFE703980099029ADC
:10042000926800F0B1F803980099029AD26800F03F
:100430008AF8FFE703980099029A126900F092F88F
:1004400002984068022813D1FFE70098FF2807D8D8
:10045000FFE703980099029A526900F033F806E02A
:1004600003980099029A526900F03FF8FFE7FFE70E
:1004700003980099029A526800F053F8FFE7019838
:10048000401C0190ADE7002004B080BD82B0019017
:1004900000910198406900990840401A4142484142
:1004A00002B0704782B00190009100980199886273
:1004B00002B0704782B00190009100980199886263
:1004C00002B0704783B00290019100920298006AD6
:1004D000019A524352430F2151438843009951439B
:1004E00008430299086203B0704783B002900191FB
:1004F00000920298406A01990A0A524352430F211E
:10050000514388430099514308430299486203B01C
:10051000704782B00190009100980199886102B003
:10052000704783B002900191009202980068019A8E
:100530005243032151438843009951430843029990
:10054000086003B0704783B0029001910092029856
:100550004068019A904300995143084302994860CA
:1005600003B0704783B00290019100920298C06876
:10057000019A524303215143884300995143084350
:100580000299C86003B0704783B002900191009255
:1005900002988068019A524303215143884300998D
:1005A000514308430299886003B0704782B00190BC
:1005B000019A0548016811430160006801990840EB
:1005C0000090009802B070473410024080B582B0AD
:1005D000019001987D21C90000F002F802B080BDB1
:1005E00080B582B00190009101980099FFF7E4FD79
:1005F000401E934908609349002008600249052085
:10060000086002B080BDC04610E000E01D480068F0
:10061000382108407047C046074908680122120285
:10062000104308607047C0460348006801218902F2
:100630000840800A7047C0460010024081B0009018
:10064000104908680F2212029043009A1043086074
:1006500001B0704781B000900A4908680722120370
:100660009043009A1043086001B0704781B0009039
:100670000449086807229043009A1043086001B0BB
:100680007047C0460810024081B0009000980249AF
:10069000086001B07047C04600000020F0B58BB084
:1006A000002004900A900990089007900690059009
:1006B00001200190FFF77AFF02263046FFF776FF10
:1006C0000199052000070290FFF7ECFE02983146E1
:1006D000FFF7E8FE029804252946FFF7E3FE02989B
:1006E00008242146FFF7DEFE019A0298049905923C
:1006F000069207910892099105A90391FFF76AFEF6
:10070000019B049A03990298059606930792089311
:100710000992FFF75FFE019B049A039902980595E1
:100720000693079208930992FFF754FE019B049ADF
:100730000399029805940693079208930992FFF78C
:1007400049FE049A03990298102305930692099290
:10075000FFF740FE03990498202205920690099025
:100760000248FFF737FE0BB0F0BDC0460004005052
:10077000FFE7FEE7704770477047000080B582B022
:10078000FFF74AFFFFE7FFF74FFF012801D0FFE720
:10079000F9E700200190FFF751FF0198FFF766FF8E
:1007A000FFE7FFF733FF002801D0FFE7F9E700205C
:1007B000FFF750FF04480090FFF708FF0098FFF78D
:1007C00063FF02B080BDC0460024F4007047000003
:1007D00086B00590002001901948006800900598A7
:1007E00000010490174800680390FFE7154800686F
:1007F00002900298039988421ED0FFE7029803995D
:10080000884207D2FFE703980299411A01984018DD
:10081000019008E000980299401A03994118019844
:1008200040180190FFE702980390019804998842CC
:1008300001D3FFE701E0FFE7D8E706B07047C04605
:1008400014E000E018E000E080B582B0019001996A
:100850004868C968FFF75DFE019908688968FFF775
:1008600058FE6420FFF7B4FF019908688968FFF714
:1008700021FE02B080BD80B582B001900199486828
:10088000C968FFF717FE64200090FFF7A1FF0199E8
:1008900008688968FFF70EFE0098FFF799FF019935
:1008A0004868C968FFF735FE0098FFF791FF019986
:1008B00008688968FFF72DFE02B080BD80B584B05E
:1008C000039002A8017001A900200870FFE701A8A9
:1008D000007807282FDCFFE703994868C968FFF70D
:1008E000E9FD6420FFF774FF02A8007801A90978E8
:1008F000C840C007002806D0FFE703990868896848
:10090000FFF707FE05E0039908688968FFF7D2FD45
:10091000FFE764200090FFF75BFF03994868C96810
:10092000FFF7F7FD0098FFF753FFFFE70198401C22
:1009300001A90870CBE703994868C968FFF7BAFDB9
:100940006420FFF745FF039908688968FFF7B2FD47
:10095000FFE7039908688968FFF798FD002801D030
:10096000FFE7F6E704B080BD80B586B0059004A827
:10097000009001700598FFF767FF05984421FFF785
:100980009DFF0598FFF777FF0598FFF75DFF00983B
:100990000599019101780920012202920029039012
:1009A00001D10298039001980399FFF787FF0598FA
:1009B000FFF761FF06B080BD80B584B0039002A848
:1009C000017001A8009002700398FFF73DFF0398A3
:1009D0004421FFF773FF0398FFF74DFF0398FFF7DC
:1009E00033FF0398C021FFF769FF00990398097846
:1009F000FFF764FF009903980978FFF75FFF0099FC
:100A000003980978FFF75AFF009903980978FFF7D0
:100A100055FF009903980978FFF750FF0099039854
:100A20000978FFF74BFF009903980978FFF746FF15
:100A3000009903980978FFF741FF00990398097816
:100A4000FFF73CFF009903980978FFF737FF0099FB
:100A500003980978FFF732FF009903980978FFF7A8
:100A60002DFF009903980978FFF728FF0099039854
:100A70000978FFF723FF009903980978FFF71EFF15
:100A8000009903980978FFF719FF0398FFF7F3FE21
:100A90000398FFF7D9FE03988821FFF70FFF03980B
:100AA000FFF7E9FE04B080BD70B582B0024601A830
:100AB0000270009100214056002816D4FFE7002460
:100AC00001A908570322D3431840174A80580957F1
:100AD0008C07E50EFF24AC40A043009CA401E4B2C7
:100AE000AC402043194088501AE001A908780F242F
:100AF000204008380322D34318400A4A8058002572
:100B000049578D07EE0EFF25B540A843009DAD0166
:100B1000EDB2B54028432140083919408850FFE71D
:100B200002B070BD1CED00E000E400E080B586B0CE
:100B300000200090059001200390FFF73BFC0398F4
:100B40000007FFF727FC0098C0430321FFF7ACFF25
:100B5000FFF714FEFFF7A2FD00990B480190FFF785
:100B600003FF009909480290FFF7FEFE01980399E0
:100B7000FF220492FFF720FF02980399049AFFF7DF
:100B80001BFFFFE7FEE7C046040000201400002022
:100B9000B00B000800000020280000001C01000825
:100BA000D80B000828000020600600003C01000867
:100BB0000024F40000000050000000500800000075
:100BC000040000000000005000000050020000007F
:080BD00001000000000000001C
:04000005080000C12E
:00000001FF
